{
  "contractName": "Funding",
  "abi": [
    {
      "constant": true,
      "inputs": [
        {
          "internalType": "uint256",
          "name": "",
          "type": "uint256"
        }
      ],
      "name": "campaigns",
      "outputs": [
        {
          "internalType": "string",
          "name": "projectName",
          "type": "string"
        },
        {
          "internalType": "string",
          "name": "projectDescription",
          "type": "string"
        },
        {
          "internalType": "address payable",
          "name": "manager",
          "type": "address"
        },
        {
          "internalType": "address payable",
          "name": "lastmanager",
          "type": "address"
        },
        {
          "internalType": "uint256",
          "name": "targetMoney",
          "type": "uint256"
        },
        {
          "internalType": "uint256",
          "name": "durTime",
          "type": "uint256"
        },
        {
          "internalType": "uint256",
          "name": "startTime",
          "type": "uint256"
        },
        {
          "internalType": "uint256",
          "name": "endTime",
          "type": "uint256"
        },
        {
          "internalType": "uint256",
          "name": "collectedMoney",
          "type": "uint256"
        },
        {
          "internalType": "uint256",
          "name": "numFunders",
          "type": "uint256"
        },
        {
          "internalType": "uint256",
          "name": "state",
          "type": "uint256"
        }
      ],
      "payable": false,
      "stateMutability": "view",
      "type": "function"
    },
    {
      "constant": true,
      "inputs": [],
      "name": "numCampaigns",
      "outputs": [
        {
          "internalType": "uint256",
          "name": "",
          "type": "uint256"
        }
      ],
      "payable": false,
      "stateMutability": "view",
      "type": "function"
    },
    {
      "constant": true,
      "inputs": [
        {
          "internalType": "uint256",
          "name": "",
          "type": "uint256"
        }
      ],
      "name": "uses",
      "outputs": [
        {
          "internalType": "string",
          "name": "useDescription",
          "type": "string"
        },
        {
          "internalType": "uint256",
          "name": "amount",
          "type": "uint256"
        },
        {
          "internalType": "uint256",
          "name": "agreeAmount",
          "type": "uint256"
        },
        {
          "internalType": "uint256",
          "name": "disagreeAmount",
          "type": "uint256"
        },
        {
          "internalType": "uint256",
          "name": "numVote",
          "type": "uint256"
        }
      ],
      "payable": false,
      "stateMutability": "view",
      "type": "function"
    },
    {
      "constant": false,
      "inputs": [
        {
          "internalType": "string",
          "name": "name",
          "type": "string"
        },
        {
          "internalType": "string",
          "name": "desc",
          "type": "string"
        },
        {
          "internalType": "address payable",
          "name": "manager",
          "type": "address"
        },
        {
          "internalType": "uint256",
          "name": "target",
          "type": "uint256"
        },
        {
          "internalType": "uint256",
          "name": "dur",
          "type": "uint256"
        }
      ],
      "name": "newCampaign",
      "outputs": [
        {
          "internalType": "uint256",
          "name": "",
          "type": "uint256"
        }
      ],
      "payable": false,
      "stateMutability": "nonpayable",
      "type": "function"
    },
    {
      "constant": false,
      "inputs": [
        {
          "internalType": "uint256",
          "name": "campaignID",
          "type": "uint256"
        }
      ],
      "name": "contribute",
      "outputs": [],
      "payable": true,
      "stateMutability": "payable",
      "type": "function"
    },
    {
      "constant": false,
      "inputs": [
        {
          "internalType": "uint256",
          "name": "campaignID",
          "type": "uint256"
        },
        {
          "internalType": "uint256",
          "name": "amount",
          "type": "uint256"
        },
        {
          "internalType": "string",
          "name": "desc",
          "type": "string"
        }
      ],
      "name": "setUse",
      "outputs": [],
      "payable": false,
      "stateMutability": "nonpayable",
      "type": "function"
    },
    {
      "constant": false,
      "inputs": [
        {
          "internalType": "uint256",
          "name": "campaignID",
          "type": "uint256"
        },
        {
          "internalType": "uint256",
          "name": "amount",
          "type": "uint256"
        },
        {
          "internalType": "string",
          "name": "desc",
          "type": "string"
        }
      ],
      "name": "setUse2",
      "outputs": [],
      "payable": false,
      "stateMutability": "nonpayable",
      "type": "function"
    },
    {
      "constant": false,
      "inputs": [
        {
          "internalType": "uint256",
          "name": "campaignID",
          "type": "uint256"
        },
        {
          "internalType": "uint256",
          "name": "amount",
          "type": "uint256"
        },
        {
          "internalType": "string",
          "name": "desc",
          "type": "string"
        }
      ],
      "name": "setUse3",
      "outputs": [],
      "payable": false,
      "stateMutability": "nonpayable",
      "type": "function"
    },
    {
      "constant": false,
      "inputs": [
        {
          "internalType": "uint256",
          "name": "campaignID",
          "type": "uint256"
        },
        {
          "internalType": "bool",
          "name": "agree",
          "type": "bool"
        }
      ],
      "name": "agreeUse",
      "outputs": [],
      "payable": false,
      "stateMutability": "nonpayable",
      "type": "function"
    },
    {
      "constant": true,
      "inputs": [
        {
          "internalType": "uint256",
          "name": "campaignID",
          "type": "uint256"
        }
      ],
      "name": "getInvestors",
      "outputs": [
        {
          "internalType": "address payable[]",
          "name": "",
          "type": "address[]"
        }
      ],
      "payable": false,
      "stateMutability": "view",
      "type": "function"
    },
    {
      "constant": true,
      "inputs": [
        {
          "internalType": "uint256",
          "name": "campaignID",
          "type": "uint256"
        }
      ],
      "name": "getprojectDescription",
      "outputs": [
        {
          "internalType": "string",
          "name": "",
          "type": "string"
        }
      ],
      "payable": false,
      "stateMutability": "view",
      "type": "function"
    },
    {
      "constant": false,
      "inputs": [
        {
          "internalType": "uint256",
          "name": "campaignID",
          "type": "uint256"
        }
      ],
      "name": "changeprojectDescription",
      "outputs": [],
      "payable": false,
      "stateMutability": "nonpayable",
      "type": "function"
    },
    {
      "constant": true,
      "inputs": [
        {
          "internalType": "uint256",
          "name": "campaignID",
          "type": "uint256"
        }
      ],
      "name": "getVotes",
      "outputs": [
        {
          "internalType": "uint256[]",
          "name": "",
          "type": "uint256[]"
        }
      ],
      "payable": false,
      "stateMutability": "view",
      "type": "function"
    },
    {
      "constant": false,
      "inputs": [
        {
          "internalType": "uint256",
          "name": "campaignID",
          "type": "uint256"
        }
      ],
      "name": "refund",
      "outputs": [],
      "payable": false,
      "stateMutability": "nonpayable",
      "type": "function"
    },
    {
      "constant": false,
      "inputs": [
        {
          "internalType": "uint256",
          "name": "campaignID",
          "type": "uint256"
        }
      ],
      "name": "refund2",
      "outputs": [],
      "payable": false,
      "stateMutability": "nonpayable",
      "type": "function"
    }
  ],
  "bytecode": "0x608060405234801561001057600080fd5b50612470806100206000396000f3fe6080604052600436106100e85760003560e01c8063766d71451161008a578063b7b1d13011610059578063b7b1d13014610324578063c1cbbca71461034d578063db44a47e14610369578063ff98109914610392576100e8565b8063766d7145146102545780637cdcbd5d1461027d578063863ee503146102be57806395ca3830146102fb576100e8565b8063278ecde1116100c6578063278ecde1146101ae5780632c0f7b6f146101d75780633a541e6514610202578063489b05f51461022b576100e8565b80630af9227a146100ed5780631139de551461012a578063141961bc14610167575b600080fd5b3480156100f957600080fd5b50610114600480360361010f9190810190611e61565b6103cf565b604051610121919061210b565b60405180910390f35b34801561013657600080fd5b50610151600480360361014c9190810190611e61565b610493565b60405161015e91906120c7565b60405180910390f35b34801561017357600080fd5b5061018e60048036036101899190810190611e61565b610543565b6040516101a59b9a9998979695949392919061212d565b60405180910390f35b3480156101ba57600080fd5b506101d560048036036101d09190810190611e61565b61070d565b005b3480156101e357600080fd5b506101ec6107e4565b6040516101f99190612240565b60405180910390f35b34801561020e57600080fd5b5061022960048036036102249190810190611ec6565b6107ea565b005b34801561023757600080fd5b50610252600480360361024d9190810190611e8a565b61094f565b005b34801561026057600080fd5b5061027b60048036036102769190810190611ec6565b610de1565b005b34801561028957600080fd5b506102a4600480360361029f9190810190611e61565b610f46565b6040516102b59594939291906121e6565b60405180910390f35b3480156102ca57600080fd5b506102e560048036036102e09190810190611dba565b611014565b6040516102f29190612240565b60405180910390f35b34801561030757600080fd5b50610322600480360361031d9190810190611e61565b611330565b005b34801561033057600080fd5b5061034b60048036036103469190810190611ec6565b611393565b005b61036760048036036103629190810190611e61565b6114d5565b005b34801561037557600080fd5b50610390600480360361038b9190810190611e61565b611731565b005b34801561039e57600080fd5b506103b960048036036103b49190810190611e61565b6118af565b6040516103c691906120e9565b60405180910390f35b606060006001600084815260200190815260200160002090506000816001019050808054600181600116156101000203166002900480601f0160208091040260200160405190810160405280929190818152602001828054600181600116156101000203166002900480156104855780601f1061045a57610100808354040283529160200191610485565b820191906000526020600020905b81548152906001019060200180831161046857829003601f168201915b505050505092505050919050565b60606000600160008481526020019081526020016000209050600081600b0190508080548060200260200160405190810160405280929190818152602001828054801561053557602002820191906000526020600020905b8160009054906101000a900473ffffffffffffffffffffffffffffffffffffffff1673ffffffffffffffffffffffffffffffffffffffff16815260200190600101908083116104eb575b505050505092505050919050565b6001602052806000526040600020600091509050806000018054600181600116156101000203166002900480601f0160208091040260200160405190810160405280929190818152602001828054600181600116156101000203166002900480156105ef5780601f106105c4576101008083540402835291602001916105ef565b820191906000526020600020905b8154815290600101906020018083116105d257829003601f168201915b505050505090806001018054600181600116156101000203166002900480601f01602080910402602001604051908101604052809291908181526020018280546001816001161561010002031660029004801561068d5780601f106106625761010080835404028352916020019161068d565b820191906000526020600020905b81548152906001019060200180831161067057829003601f168201915b5050505050908060020160009054906101000a900473ffffffffffffffffffffffffffffffffffffffff16908060030160009054906101000a900473ffffffffffffffffffffffffffffffffffffffff169080600401549080600501549080600601549080600701549080600801549080600901549080600a015490508b565b60006001600083815260200190815260200160002090506000600190505b816009015481116107df5781600b01818154811061074557fe5b9060005260206000200160009054906101000a900473ffffffffffffffffffffffffffffffffffffffff1673ffffffffffffffffffffffffffffffffffffffff166108fc83600c01600184038154811061079b57fe5b90600052602060002001549081150290604051600060405180830381858888f193505050501580156107d1573d6000803e3d6000fd5b50808060010191505061072b565b505050565b60005481565b600054831080156107fc575060008310155b61080557600080fd5b600060016000858152602001908152602001600020600a01541461082857600080fd5b3373ffffffffffffffffffffffffffffffffffffffff166001600085815260200190815260200160002060020160009054906101000a900473ffffffffffffffffffffffffffffffffffffffff1673ffffffffffffffffffffffffffffffffffffffff161461089657600080fd5b60006001600085815260200190815260200160002090506040518060400160405280600181526020017f31000000000000000000000000000000000000000000000000000000000000008152508160010190805190602001906108fa929190611929565b5060006002600086815260200190815260200160002090508281600001908051906020019061092a929190611929565b50670de0b6b3a764000084028160010181905550600082600a01819055505050505050565b600060016000848152602001908152602001600020905060006002600085815260200190815260200160002090506000548410801561098f575060008410155b61099857600080fd5b81600b016000815481106109a857fe5b9060005260206000200160009054906101000a900473ffffffffffffffffffffffffffffffffffffffff1673ffffffffffffffffffffffffffffffffffffffff163373ffffffffffffffffffffffffffffffffffffffff161415610ddb57600115158315151415610dc657610a1c84611731565b600082600a01819055508160020160009054906101000a900473ffffffffffffffffffffffffffffffffffffffff1673ffffffffffffffffffffffffffffffffffffffff166108fc82600101549081150290604051600060405180830381858888f19350505050158015610a94573d6000803e3d6000fd5b508160020160009054906101000a900473ffffffffffffffffffffffffffffffffffffffff168260030160006101000a81548173ffffffffffffffffffffffffffffffffffffffff021916908373ffffffffffffffffffffffffffffffffffffffff160217905550338260020160006101000a81548173ffffffffffffffffffffffffffffffffffffffff021916908373ffffffffffffffffffffffffffffffffffffffff1602179055506040518060400160405280600181526020017f3100000000000000000000000000000000000000000000000000000000000000815250826001019080519060200190610b8c929190611929565b5081600801548260040181905550600082600801819055505b600082600901541115610c0e5781600b01805480610bbf57fe5b6001900381819060005260206000200160006101000a81549073ffffffffffffffffffffffffffffffffffffffff02191690559055816009016000815480929190600190039190505550610ba5565b60008260090181905550816001600086815260200190815260200160002060008201816000019080546001816001161561010002031660029004610c539291906119a9565b5060018201816001019080546001816001161561010002031660029004610c7b9291906119a9565b506002820160009054906101000a900473ffffffffffffffffffffffffffffffffffffffff168160020160006101000a81548173ffffffffffffffffffffffffffffffffffffffff021916908373ffffffffffffffffffffffffffffffffffffffff1602179055506003820160009054906101000a900473ffffffffffffffffffffffffffffffffffffffff168160030160006101000a81548173ffffffffffffffffffffffffffffffffffffffff021916908373ffffffffffffffffffffffffffffffffffffffff160217905550600482015481600401556005820154816005015560068201548160060155600782015481600701556008820154816008015560098201548160090155600a82015481600a0155600b820181600b01908054610da6929190611a30565b50600c820181600c01908054610dbd929190611a82565b50905050610dda565b600082600a0181905550610dd98461070d565b5b5b50505050565b60005483108015610df3575060008310155b610dfc57600080fd5b600060016000858152602001908152602001600020600a015414610e1f57600080fd5b3373ffffffffffffffffffffffffffffffffffffffff166001600085815260200190815260200160002060020160009054906101000a900473ffffffffffffffffffffffffffffffffffffffff1673ffffffffffffffffffffffffffffffffffffffff1614610e8d57600080fd5b60006001600085815260200190815260200160002090506040518060400160405280600181526020017f3000000000000000000000000000000000000000000000000000000000000000815250816001019080519060200190610ef1929190611929565b50600060026000868152602001908152602001600020905082816000019080519060200190610f21929190611929565b50670de0b6b3a764000084028160010181905550600082600a01819055505050505050565b6002602052806000526040600020600091509050806000018054600181600116156101000203166002900480601f016020809104026020016040519081016040528092919081815260200182805460018160011615610100020316600290048015610ff25780601f10610fc757610100808354040283529160200191610ff2565b820191906000526020600020905b815481529060010190602001808311610fd557829003601f168201915b5050505050908060010154908060020154908060030154908060040154905085565b600080821161102257600080fd5b6000806000815480929190600101919050559050606080611041611ad4565b604051806101a001604052808b81526020018a81526020018973ffffffffffffffffffffffffffffffffffffffff1681526020018973ffffffffffffffffffffffffffffffffffffffff168152602001670de0b6b3a764000089028152602001878152602001428152602001620151808802420181526020016000815260200160008152602001600081526020018481526020018381525090508060016000868152602001908152602001600020600082015181600001908051906020019061110b929190611b68565b506020820151816001019080519060200190611128929190611b68565b5060408201518160020160006101000a81548173ffffffffffffffffffffffffffffffffffffffff021916908373ffffffffffffffffffffffffffffffffffffffff16021790555060608201518160030160006101000a81548173ffffffffffffffffffffffffffffffffffffffff021916908373ffffffffffffffffffffffffffffffffffffffff1602179055506080820151816004015560a0820151816005015560c0820151816006015560e082015181600701556101008201518160080155610120820151816009015561014082015181600a015561016082015181600b01908051906020019061121d929190611be8565b5061018082015181600c01908051906020019061123b929190611c72565b5090505060606040518060c001604052806040518060400160405280601b81526020017f506c656173652073657420557365204465736372697074696f6e2e0000000000815250815260200160008152602001600081526020016000815260200160008152602001828152506002600087815260200190815260200160002060008201518160000190805190602001906112d6929190611b68565b506020820151816001015560408201518160020155606082015181600301556080820151816004015560a082015181600501908051906020019061131b929190611c72565b50905050849550505050505095945050505050565b6040518060400160405280600181526020017f310000000000000000000000000000000000000000000000000000000000000081525060016000838152602001908152602001600020600101908051906020019061138f929190611929565b5050565b600054831080156113a5575060008310155b6113ae57600080fd5b3373ffffffffffffffffffffffffffffffffffffffff166001600085815260200190815260200160002060020160009054906101000a900473ffffffffffffffffffffffffffffffffffffffff1673ffffffffffffffffffffffffffffffffffffffff161461141c57600080fd5b6000600160008581526020019081526020016000209050600060026000868152602001908152602001600020905082816000019080519060200190611462929190611929565b50670de0b6b3a764000084028160010181905550600482600a01819055506040518060400160405280600181526020017f33000000000000000000000000000000000000000000000000000000000000008152508260010190805190602001906114cd929190611929565b505050505050565b600054811080156114e7575060008110155b6114f057600080fd5b4260016000838152602001908152602001600020600701541161151257600080fd5b6000600160008381526020019081526020016000209050600060026000848152602001908152602001600020905080600501600090806001815401808255809150509060018203906000526020600020016000909192909190915055506000826009015414156116095781600b018260020160009054906101000a900473ffffffffffffffffffffffffffffffffffffffff1690806001815401808255809150509060018203906000526020600020016000909192909190916101000a81548173ffffffffffffffffffffffffffffffffffffffff021916908373ffffffffffffffffffffffffffffffffffffffff160217905550505b81600b013390806001815401808255809150509060018203906000526020600020016000909192909190916101000a81548173ffffffffffffffffffffffffffffffffffffffff021916908373ffffffffffffffffffffffffffffffffffffffff16021790555050816009016000815480929190600101919050555081600c013490806001815401808255809150509060018203906000526020600020016000909192909190915055503482600801541015611722573482600801819055503382600b016000815481106116d957fe5b9060005260206000200160006101000a81548173ffffffffffffffffffffffffffffffffffffffff021916908373ffffffffffffffffffffffffffffffffffffffff1602179055505b600182600a0181905550505050565b60006001600083815260200190815260200160002090506000600190505b816009015481116118aa5781600b0160008154811061176a57fe5b9060005260206000200160009054906101000a900473ffffffffffffffffffffffffffffffffffffffff1673ffffffffffffffffffffffffffffffffffffffff1682600b0182815481106117ba57fe5b9060005260206000200160009054906101000a900473ffffffffffffffffffffffffffffffffffffffff1673ffffffffffffffffffffffffffffffffffffffff161461189d5781600b01818154811061180f57fe5b9060005260206000200160009054906101000a900473ffffffffffffffffffffffffffffffffffffffff1673ffffffffffffffffffffffffffffffffffffffff166108fc83600c01600184038154811061186557fe5b90600052602060002001549081150290604051600060405180830381858888f1935050505015801561189b573d6000803e3d6000fd5b505b808060010191505061174f565b505050565b6060600060026000848152602001908152602001600020905060008160050190508080548060200260200160405190810160405280929190818152602001828054801561191b57602002820191906000526020600020905b815481526020019060010190808311611907575b505050505092505050919050565b828054600181600116156101000203166002900490600052602060002090601f016020900481019282601f1061196a57805160ff1916838001178555611998565b82800160010185558215611998579182015b8281111561199757825182559160200191906001019061197c565b5b5090506119a59190611cbf565b5090565b828054600181600116156101000203166002900490600052602060002090601f016020900481019282601f106119e25780548555611a1f565b82800160010185558215611a1f57600052602060002091601f016020900482015b82811115611a1e578254825591600101919060010190611a03565b5b509050611a2c9190611cbf565b5090565b828054828255906000526020600020908101928215611a715760005260206000209182015b82811115611a70578254825591600101919060010190611a55565b5b509050611a7e9190611ce4565b5090565b828054828255906000526020600020908101928215611ac35760005260206000209182015b82811115611ac2578254825591600101919060010190611aa7565b5b509050611ad09190611cbf565b5090565b604051806101a001604052806060815260200160608152602001600073ffffffffffffffffffffffffffffffffffffffff168152602001600073ffffffffffffffffffffffffffffffffffffffff1681526020016000815260200160008152602001600081526020016000815260200160008152602001600081526020016000815260200160608152602001606081525090565b828054600181600116156101000203166002900490600052602060002090601f016020900481019282601f10611ba957805160ff1916838001178555611bd7565b82800160010185558215611bd7579182015b82811115611bd6578251825591602001919060010190611bbb565b5b509050611be49190611cbf565b5090565b828054828255906000526020600020908101928215611c61579160200282015b82811115611c605782518260006101000a81548173ffffffffffffffffffffffffffffffffffffffff021916908373ffffffffffffffffffffffffffffffffffffffff16021790555091602001919060010190611c08565b5b509050611c6e9190611ce4565b5090565b828054828255906000526020600020908101928215611cae579160200282015b82811115611cad578251825591602001919060010190611c92565b5b509050611cbb9190611cbf565b5090565b611ce191905b80821115611cdd576000816000905550600101611cc5565b5090565b90565b611d2491905b80821115611d2057600081816101000a81549073ffffffffffffffffffffffffffffffffffffffff021916905550600101611cea565b5090565b90565b600081359050611d36816123e8565b92915050565b600081359050611d4b816123ff565b92915050565b600082601f830112611d6257600080fd5b8135611d75611d7082612288565b61225b565b91508082526020830160208301858383011115611d9157600080fd5b611d9c838284612395565b50505092915050565b600081359050611db481612416565b92915050565b600080600080600060a08688031215611dd257600080fd5b600086013567ffffffffffffffff811115611dec57600080fd5b611df888828901611d51565b955050602086013567ffffffffffffffff811115611e1557600080fd5b611e2188828901611d51565b9450506040611e3288828901611d27565b9350506060611e4388828901611da5565b9250506080611e5488828901611da5565b9150509295509295909350565b600060208284031215611e7357600080fd5b6000611e8184828501611da5565b91505092915050565b60008060408385031215611e9d57600080fd5b6000611eab85828601611da5565b9250506020611ebc85828601611d3c565b9150509250929050565b600080600060608486031215611edb57600080fd5b6000611ee986828701611da5565b9350506020611efa86828701611da5565b925050604084013567ffffffffffffffff811115611f1757600080fd5b611f2386828701611d51565b9150509250925092565b6000611f398383611f5d565b60208301905092915050565b6000611f5183836120a9565b60208301905092915050565b611f668161234d565b82525050565b611f758161234d565b82525050565b6000611f86826122d4565b611f90818561231a565b9350611f9b836122b4565b8060005b83811015611fcc578151611fb38882611f2d565b9750611fbe83612300565b925050600181019050611f9f565b5085935050505092915050565b6000611fe4826122df565b611fee818561232b565b9350611ff9836122c4565b8060005b8381101561202a5781516120118882611f45565b975061201c8361230d565b925050600181019050611ffd565b5085935050505092915050565b6000612042826122f5565b61204c818561233c565b935061205c8185602086016123a4565b612065816123d7565b840191505092915050565b600061207b826122ea565b612085818561233c565b93506120958185602086016123a4565b61209e816123d7565b840191505092915050565b6120b28161238b565b82525050565b6120c18161238b565b82525050565b600060208201905081810360008301526120e18184611f7b565b905092915050565b600060208201905081810360008301526121038184611fd9565b905092915050565b600060208201905081810360008301526121258184612037565b905092915050565b6000610160820190508181036000830152612148818e612070565b9050818103602083015261215c818d612070565b905061216b604083018c611f6c565b612178606083018b611f6c565b612185608083018a6120b8565b61219260a08301896120b8565b61219f60c08301886120b8565b6121ac60e08301876120b8565b6121ba6101008301866120b8565b6121c86101208301856120b8565b6121d66101408301846120b8565b9c9b505050505050505050505050565b600060a08201905081810360008301526122008188612070565b905061220f60208301876120b8565b61221c60408301866120b8565b61222960608301856120b8565b61223660808301846120b8565b9695505050505050565b600060208201905061225560008301846120b8565b92915050565b6000604051905081810181811067ffffffffffffffff8211171561227e57600080fd5b8060405250919050565b600067ffffffffffffffff82111561229f57600080fd5b601f19601f8301169050602081019050919050565b6000819050602082019050919050565b6000819050602082019050919050565b600081519050919050565b600081519050919050565b600081519050919050565b600081519050919050565b6000602082019050919050565b6000602082019050919050565b600082825260208201905092915050565b600082825260208201905092915050565b600082825260208201905092915050565b60006123588261236b565b9050919050565b60008115159050919050565b600073ffffffffffffffffffffffffffffffffffffffff82169050919050565b6000819050919050565b82818337600083830152505050565b60005b838110156123c25780820151818401526020810190506123a7565b838111156123d1576000848401525b50505050565b6000601f19601f8301169050919050565b6123f18161234d565b81146123fc57600080fd5b50565b6124088161235f565b811461241357600080fd5b50565b61241f8161238b565b811461242a57600080fd5b5056fea365627a7a7231582051576cf246d7c98280fb4595f142fc3d0d8a90aeb2520b3cf3ad4d28a630fd176c6578706572696d656e74616cf564736f6c63430005100040",
  "source": "// SPDX-License-Identifier: SimPL-2.0\npragma solidity >=0.4.22 <0.9.0;\npragma experimental ABIEncoderV2;\n//import \"@openzeppelin/contracts/token/ERC721/ERC721.sol\";\ncontract Funding {\n   \n    // \n    struct Use {\n        string useDescription;              // \n        uint   amount;                      // \n        uint   agreeAmount;                 // \n        uint   disagreeAmount;              // \n        uint   numVote;                     // \n        uint[] agree;                       // \n        // 0 \n        // 1 \n        // 2 \n    }\n\n    // \n    struct Campaign {\n        // \n        string projectName;                 // \n        string projectDescription;          // \n        address payable manager;            // \n        address payable lastmanager;\n        uint targetMoney;                   // \n        uint durTime;                       // \n\n        uint startTime;                     // \n        uint endTime;                       // \n        uint collectedMoney;                // \n        uint numFunders;                    // \n        // uint privatee;                      //NFT,10\n        uint state;                         /**\n                                             * \n                                             * 0\n                                             * 1\n                                             * 2\n                                             * 3\n                                             * 4\n                                             */\n\n        address payable[] funders;                  // \n        uint[]    amount;                   // \n    }\n\n    uint public numCampaigns;                      // \n    mapping (uint => Campaign) public campaigns;   // \n    mapping (uint => Use) public uses;             // Use\n\n    //nft\n    function newCampaign(string memory name, string memory desc, address payable manager, uint target, uint dur) public\n    returns (uint) {\n        require(dur > 0);\n        // campaignID \n        uint campaignID = numCampaigns++;\n\n        address payable[] memory funders;\n        uint[] memory amount;\n        Campaign memory c = Campaign({\n        projectName: name,\n        projectDescription: desc,\n        manager: manager,\n        lastmanager: manager,\n        targetMoney: target * 1 ether,\n        durTime: dur ,\n        // privatee: pri * 1 ether,\n        startTime: block.timestamp,\n        endTime: block.timestamp + dur * 1 days,\n        collectedMoney: 0 * 1 ether,\n        numFunders: 0,\n        state: 0,\n        funders: funders,\n        amount: amount\n        });\n        campaigns[campaignID] = c;\n\n        uint[] memory agree;\n        uses[campaignID] = Use({\n        useDescription: \"Please set Use Description.\",\n        amount: 0,\n        agreeAmount: 0,\n        disagreeAmount: 0,\n        numVote: 0,\n        agree: agree\n        });\n        return campaignID;\n    }\n\n    //nft\n\n\n\n    //\n\n\n\n    function contribute(uint campaignID) public payable {\n        // ID\n        require(campaignID < numCampaigns && campaignID >= 0);\n        // 0\n        // require(msg.value > 0);\n        // \n        require(campaigns[campaignID].endTime > block.timestamp);\n        // \n        //require(campaigns[campaignID].state == 0 || campaigns[campaignID].state == 1);\n\n        Campaign storage c = campaigns[campaignID];\n        Use storage u = uses[campaignID];\n        // \n        u.agree.push(0);    // \n        if(c.numFunders == 0){\n            c.funders.push(c.manager);\n        }\n        // \n        c.funders.push(msg.sender);\n        c.numFunders++;\n        c.amount.push(msg.value);\n        // \n        if(c.collectedMoney < msg.value){\n            c.collectedMoney = msg.value;\n            c.funders[0] = msg.sender;\n        }\n\n        // \n        // if(c.collectedMoney >= c.targetMoney)\n        //\n        c.state = 1;\n\n    }\n\n    function setUse(uint campaignID, uint amount, string memory desc) public {\n        require(campaignID < numCampaigns && campaignID >= 0);\n        //require(campaigns[campaignID].state == 3);\n        require(campaigns[campaignID].manager == msg.sender); // \n        //require(campaigns[campaignID].collectedMoney == amount); // \n        Campaign storage c = campaigns[campaignID];\n        Use storage u = uses[campaignID];\n        // use\n        u.useDescription = desc;\n        u.amount = amount * 1 ether;\n        // \n        c.state = 4;\n        c.projectDescription=\"3\";\n    }\n\n    //\n    function setUse2(uint campaignID, uint amount, string memory desc) public {\n        require(campaignID < numCampaigns && campaignID >= 0);\n        require(campaigns[campaignID].state == 0);\n        require(campaigns[campaignID].manager == msg.sender); // \n        //require(campaigns[campaignID].targetMoney >= amount); \n\n        Campaign storage c = campaigns[campaignID];\n        c.projectDescription = \"0\";\n        Use storage u = uses[campaignID];\n        // use\n        u.useDescription = desc;\n        u.amount = amount * 1 ether;\n        // \n        c.state = 0;\n    }\n\n    function setUse3(uint campaignID, uint amount, string memory desc) public {\n        require(campaignID < numCampaigns && campaignID >= 0);\n        require(campaigns[campaignID].state == 0);\n        require(campaigns[campaignID].manager == msg.sender); // \n        //require(campaigns[campaignID].targetMoney >= amount); \n\n        Campaign storage c = campaigns[campaignID];\n        c.projectDescription = \"1\";\n        Use storage u = uses[campaignID];\n        // use\n        u.useDescription = desc;\n        u.amount = amount * 1 ether;\n        // \n        c.state = 0;\n    }\n\n\n    function agreeUse(uint campaignID, bool agree) public {\n        Campaign storage c = campaigns[campaignID];\n        Use storage u = uses[campaignID];\n\n        require(campaignID < numCampaigns && campaignID >= 0);\n        //require(c.state == 4);\n\n        //for(uint i = 0; i < c.numFunders; i++) {\n            // \n        if(msg.sender == c.funders[0]) {\n            // require(u.agree[i] == 0);\n            if(agree == true){\n                refund2(campaignID);\n                c.state=0;\n                c.manager.transfer(u.amount);\n                c.lastmanager = c.manager;\n                c.manager = msg.sender ;\n                c.projectDescription = \"1\";\n                c.targetMoney = c.collectedMoney;\n                c.collectedMoney = 0;\n                while(c.numFunders > 0){\n                    c.funders.pop();\n                    c.numFunders--;\n                }\n                c.numFunders = 0;\n                \n                //c.amount = 0;\n                campaigns[campaignID] = c;\n                \n            }\n            else{\n                c.state = 0;\n                refund(campaignID);\n            }\n            // if(u.agree[i] == 0) {\n            //         u.numVote++;\n            //         // \n            //         if(agree == true) {\n            //             u.agree[i] = 1;\n            //             u.agreeAmount += c.amount[i];\n            //         }\n            //         // \n            //         else {\n            //             u.agree[i] = 2;\n            //             u.disagreeAmount += c.amount[i];\n            //         }\n\n            //         // \n            //         if(u.agreeAmount >= c.collectedMoney / 2) {\n            //             c.state = 2;\n            //             // \n            //             c.manager.transfer(u.amount);\n            //         }\n            //         if(u.disagreeAmount >= c.collectedMoney / 2) {\n            //             c.state = 1;\n            //             // \n            //             refund(campaignID);\n            //         }\n                }\n            }\n        //}\n    //}\n\n    // \n    function getInvestors(uint campaignID) public view returns(address payable[] memory) {\n        Campaign storage c = campaigns[campaignID];\n        address payable[] storage funders = c.funders;\n        return funders;\n    }\n    //\n    function getprojectDescription(uint campaignID) public view returns(string memory) {\n        Campaign storage c = campaigns[campaignID];\n        string storage funders = c.projectDescription;\n        return funders;\n    }\n\n    //\n    function changeprojectDescription(uint campaignID) public{\n        campaigns[campaignID].projectDescription=\"1\";\n    }\n    // \n    function getVotes(uint campaignID) public view returns(uint[] memory) {\n        Use storage u = uses[campaignID];\n        uint[] storage agrees = u.agree;\n        return agrees;\n    }\n\n    function refund(uint campaignID) public {\n        Campaign storage c = campaigns[campaignID];\n        for (uint i = 1; i <= c.numFunders; i++) {\n            c.funders[i].transfer(c.amount[i-1]);\n        }\n    }\n\n    function refund2(uint campaignID) public {\n        Campaign storage c = campaigns[campaignID];\n        for (uint i = 1; i <= c.numFunders; i++) {\n            if(c.funders[i] != c.funders[0]){\n                c.funders[i].transfer(c.amount[i-1]);\n            }\n        }\n    }\n\n}\n",
  "sourcePath": "E:\\miniICO-main\\contracts\\contracts\\Funding.sol",
  "compiler": {
    "name": "solc",
    "version": "0.5.16+commit.9c3226ce.Emscripten.clang"
  },
  "schemaVersion": "3.4.3",
  "updatedAt": "2021-11-04T11:48:05.672Z",
  "networkType": "ethereum",
  "devdoc": {
    "methods": {}
  },
  "userdoc": {
    "methods": {}
  }
}